:020000040800F2
:100000001006002089010008C5010008C70100088A
:10001000C9010008CB010008CD0100080000000064
:10002000000000000000000000000000CF010008F8
:10003000D101000800000000D3010008D50100082C
:10004000D7010008D7010008D7010008D701000830
:10005000D7010008D7010008D7010008D701000820
:10006000D7010008D7010008D7010008D701000810
:10007000D7010008D7010008D7010008D701000800
:10008000D7010008D7010008D7010008D7010008F0
:10009000D7010008D7010008D7010008D7010008E0
:1000A000D7010008D7010008D7010008D7010008D0
:1000B000D7010008D7010008D7010008D7010008C0
:1000C000D7010008D7010008D7010008D7010008B0
:1000D000D7010008D7010008D7010008D7010008A0
:1000E000D7010008D7010008D7010008D701000890
:1000F000D7010008D7010008D7010008D701000880
:10010000D7010008D7010008D7010008D70100086F
:10011000D7010008D7010008D7010008D70100085F
:10012000D7010008D7010008D7010008D70100084F
:10013000D7010008D7010008D7010008D70100083F
:10014000D7010008D7010008D7010008D70100082F
:10015000D7010008D7010008D7010008D70100081F
:10016000D7010008D7010008D7010008D70100080F
:10017000D7010008D7010008D701000800000000DF
:10018000D7010008D701000816481749174B9942B4
:100190003CBF50F8042B41F8042BF8D314494FF01E
:1001A00000028B4238BF43F8042BFAD3DFF8440037
:1001B000016841F470010160BFF34F8FBFF36F8F8F
:1001C0000D480047FEE7FEE7FEE7FEE7FEE7FEE735
:1001D000FEE7FEE7FEE7FEE708480949094A0A4B41
:1001E00070470000B8040008000000200C00002048
:1001F0001006002088ED00E0A10400081000002097
:1002000010060020100200201002002070477047E6
:10021000704700004148016821F007010160016852
:1002200041F0020101603E48016841F480710160C3
:1002300001684905FCD5416821F0F85141604168E9
:1002400041F080514160016821F0807101600168D6
:100250008901FCD4C16821F00301C160C16841F08B
:100260000201C160C16821F4FE4141F4A051C160A6
:10027000C16821F0700141F01001C160C16821F036
:10028000C061C160C16841F08071C160016841F026
:100290008071016001688901FCD5816821F003014A
:1002A0008160816841F0030181608168C1F381014F
:1002B0000329FAD1816821F0F0018160816821F47D
:1002C000E0618160816821F460518160016821F002
:1002D0008061016001684901FCD4016921F4FE419B
:1002E0000161016941F4C0510161016941F40031CA
:1002F0000161016941F480310161016841F080616F
:10030000016001684901FCD56030816A21F4400137
:100310008162016841F400110160704700200240D1
:10032000001002401148C16C41F00101C1644FF05E
:100330009040016821F0F0010160016841F0A001E6
:100340000160016A21F47F410162016A41F4EE41DA
:100350000162816841F0F0018160C16821F0F00123
:10036000C160416821F00C014160704700100240FB
:1003700000B50A48016841F400310160016B21F0C9
:100380000C010163016B41F004010163FFF7CAFF37
:1003900003485DF804EB00F015B800005810024067
:1003A000004400400A460146014800F05FB80000E2
:1003B00000440040642148430721B0FBF1F0401E97
:1003C000FDD17047016821F001010160016821F051
:1003D00010210160016821F400410160416821F4AD
:1003E0004051416042F28D01C160016841F00C0151
:1003F00001601B4988421BD1016841F02001016066
:10040000016821F040010160016821F010010160E4
:10041000016821F080010160016821F480710160B0
:10042000016821F040010160016821F001010160D3
:100430000C49884208D1016A41F0400101620A4931
:100440000A6842F0C0020A60016841F001010160DF
:10045000C1698902FCD5C1694902FCD57047000019
:10046000004C0040004400400838014070B503468D
:100470000D4600244FF4967608E0D8690006FCD5B6
:10048000285D18853046FFF795FF641C9442F4D32D
:10049000D8694006FCD5D86920F04000D86170BD0D
:1004A000FFF7B8FEFFF764FF02484FF06401FFF763
:1004B00079FF000000000020454345303230320D06
:0404C0000A0000002E
:04000005080004A14A
:00000001FF
